:10074A004D50002020202074696D653A25642020D0
:10075A00202000204C656674207465616D207769DD
:10076A006E73005269676874207465616D207769D9
:10077A006E730020202020647261772121212020BD
:10078A0020200020202020202564203A20256420D3
:03079A002020001C
:1006F600026A0000026800000262001E203C24001C
:1007060000000000000000000000000000000000E3
:1007160000000000000000000000000000000000D3
:1007260000000000000000000000000000000000C3
:100736000000000000000000000000026000060249
:030746006400014B
:1008BE00E4FDFCC3ED9FEC9E5015E4FBFA0BBB0070
:0F08CE00010AEB646E4A70F50DBD00010C80E469
:0108DD0022F8
:10092A00438901758CFC758A18D2AFD2A9D28C2260
:03000B0002083BAD
:04083B00C0E0C0D089
:10083F00758CFC758A180523E52370020522B4E830
:10084F001EE522B40319752200752300D3E56394C6
:0F085F0000E56294004008E563156370021562BE
:05086E00D0D0D0E03203
:09095B00D288D2A8D28AD2AA22C5
:0300030002079D54
:10079D00C0E0C0D075D000C000C002C003C004C00E
:1007AD0005C006C0077F027E001208BE20B21DE5FF
:1007BD00634562601774242567F876010567E56760
:1007CD0070020566056BE56B7002056AD007D006F1
:0F07DD00D005D004D003D002D000D0D0D0E0326D
:030013000207ECF5
:1007EC00C0E0C0D075D000C000C002C003C004C0BF
:1007FC0005C006C0077F027E001208BE20B31DE5AF
:10080C00634562601774242567F876020567E5670F
:10081C00700205660569E56970020568D007D006A7
:0F082C00D005D004D003D002D000D0D0D0E0321D
:1003720012089A12095B12092A30B7030204117F8C
:100382000A7E001208BE30B70302040EE56345621E
:10039200607AAF6774232FF8E6FEB40136D3E56BBB
:1003A2009400E56A9400402BE56B156B7002156AA8
:1003B20074232FF8E4F6E567156770021566D3E536
:1003C200659401E56494004043E5651565703D154B
:1003D200648039EEB40235D3E5699400E56894008F
:1003E200402AE56915697002156874232567F8E4E7
:1003F200F6E567156770021566D3E5659401E56455
:1004020094004008E56515657002156430B7FDE596
:10041200612565FFE5603564FEC3E56B9FE56A9E75
:100422004012E5692401FDE43568FCD3E56B9DE5E6
:100432006A9C501BC3E5699FE5689E4019E56B24E1
:1004420001FFE4356AFED3E5699FE5689E4007E453
:10045200F562F5638052E5612565FFE5603564FE6E
:10046200C3E56B9FE56A9E4012E5692401FFE4350E
:1004720068FED3E56B9FE56A9E4025E5612565FF31
:10048200E5603564FEC3E5699FE5689E401AE56B49
:100492002401FFE4356AFED3E5699FE5689E5008B2
:1004A2000565E56570020564C3E56B9561E56A95CE
:1004B20060500BC3E5699561E5689560402DD3E511
:1004C200639400E56294004022750BFF750C07757A
:1004D2000D4A7B007A00796C120072E4FD7F0C12E7
:1004E20008DE7B007A00796C1208FDD3E563940084
:1004F200E5629400402A750BFF750C07750D4D855A
:10050200620E85630F7B007A00796C120072E4FD43
:10051200FF1208DE7B007A00796C1208FD0205AB3F
:10052200D3E56B9569E56A95684027750BFF750CF5
:1005320007750D5D7B007A00796C120072E4FDFF95
:100542001208DE7B007A00796C1208FDC2A6D2A7DF
:100552008057C3E56B9569E56A95685027750BFF6F
:10056200750C07750D6D7B007A00796C120072E4D0
:10057200FDFF1208DE7B007A00796C1208FDD2A61C
:10058200C2A78025750BFF750C07750D7D7B007A60
:1005920000796C120072E4FDFF1208DE7B007A0023
:1005A200796C1208FDC2A6C2A7750BFF750C077500
:1005B2000D8D856A0E856B0F8568108569117B002C
:1005C2007A00796C1200727D01E4FF1208DE7B0072
:0A05D2007A00796C1208FD02037B29
:0D093A00C2A0D2A100D2A200C2A2AF8022B2
:10091400C2A2A20092A0C2A10085088000D2A200B7
:06092400C2A20002093A24
:0A094700C200EF4408F5080209148D
:0A095100C200EF4404F50802091487
:10089A00C2A2C200750838120914C20075083812BB
:1008AA0009147F04120947C2007508011209147F4E
:0408BA0002020951DC
:1008DE00AE07ED700AC200EE4480F508120914BD91
:0F08EE00010CC200EE24C04480F5081209142248
:1008FD001205DCFF6010D200F508120914740129ED
:07090D00F9E43AFA80EA2246
:0300000002066A8B
:0C066A00787FE4F6D8FD75817B0206B1B4
:1005DC00BB010689828A83E0225002E722BBFE021D
:0905EC00E32289828A83E4932250
:10001600E517240BF8E60517227808300702780B57
:10002600E475F0011206340205DC2000EB7F2ED2C7
:10003600008018EF540F2490D43440D4FF30040BC2
:10004600EF24BFB41A0050032461FFE518600215BF
:1000560018051BE51B7002051A30070D7808E475B4
:10006600F001120634EF0206220208737403D20767
:100076008003E4C207F5178B088A09890AE4F51894
:10008600F51AF51BE51860077F2012005180F575FB
:1000960019FFC201C200C202C203C205C206C208DB
:1000A60012001FFF700D3007057F00120062AF1BA4
:1000B600AE1A22B4255FC2D5C20412001FFF24D097
:1000C600B40A00501A75F00A781830D50508B6FF3C
:1000D6000106C6A426F620D5047002D20380D924D0
:1000E600CFB41A00EF5004C2E5D204020262D20174
:1000F60080C6D20080C0D20280BCD2D580BAD205DA
:1001060080B47F201200512002077401B518004008
:10011600F1120016FF12005102008AD208D20680A0
:1001260095120016FB120016FA120016F94A4B70C9
:100136000679337A037BFF20022EE518602A7E00BB
:100146008E827583001205F560060EEE651970F055
:10015600C2D5EBC0E0EAC0E0E9C0E0EE1202A9D0E9
:10016600E0F9D0E0FAD0E0FB1205DCFF60AAEBC0B4
:10017600E0EAC0E0E9C0E0120051D0E02401F9D085
:10018600E03400FAD0E0FBE5190460DCD519D9802B
:10019600877BFF7A0279A5D202809C79108002794A
:1001A60008C206C2088008D2D5790A8004790AC234
:1001B600D5E519047002F519E4FAFDFEFF120016E2
:1001C600FC7B08200113120016FD7B1030000A127A
:1001D6000016FE120016FF7B20EC3382D592D55016
:1001E60013C3E43000069FFFE49EFEE42001039D56
:1001F600FDE49CFCE4CBF8C201EC700CCFCECDCC78
:10020600E824F8F870F38017C3EF33FFEE33FEED02
:1002160033FDEC33FCEB33FB994002FB0FD8E9EBE3
:10022600300105F8D0E0C448B201C0E00AEC4D4EFA
:100236004F78207B0070C2EAB5190040BCC0E012BE
:1002460002ABD0F0D0E0200104C4C0E0C4B201C0CB
:10025600F012003AD0F0D5F0EB02008A1206440103
:10026600275301A15800F84C00F44201A54F01ADF7
:0F0276004401AD49010D4301B35501974601976E
:100285004501974703535000FC2D01002E01232BF8
:10029500010423012120033C2A00BC480000011B66
:1002A5003F3F3F00790AA2D5200314300509B91054
:1002B500020404B9080104A2D52006025001042055
:1002C50002689202B518005034C0E07F203003194F
:1002D5007F30A20272067205500F120302C202C2DB
:1002E50006C205C2087F30800F300503E9C0E01261
:1002F5000051300503D0E0F9D0E0B518CC30051732
:100305007F30B9100C1200517F583004077F788078
:1003150003B908031200513002057F2D0200517FF9
:10032500202008F87F2B2006F322920280CF286E2A
:10033500756C6C2900D2011200163001F8C20178E3
:100345001830D50108F60200BC2D5043495812005B
:10035500162403B405004001E490034E93120042B5
:0D036500743A120042D2037518040201A17F
:10067600020372E493A3F8E493A34003F68001F225
:1006860008DFF48029E493A3F85407240CC8C33385
:10069600C4540F4420C8834004F456800146F6DF54
:1006A600E4800B01020408102040809006F6E47EE8
:1006B600019360BCA3FF543F30E509541FFEE49349
:1006C600A360010ECF54C025E060A840B8E493A310
:1006D600FAE493A3F8E493A3C8C582C8CAC583CA3B
:1006E600F0A3C8C582C8CAC583CADFE9DEE780BEF3
:0107490000AF
:1005F500BB010CE58229F582E5833AF583E02250BB
:1006050006E92582F8E622BBFE06E92582F8E22204
:0D061500E58229F582E5833AF583E493221E
:10062200BB010689828A83F0225002F722BBFE01B7
:02063200F322B1
:10063400FAE6FB0808E6F925F0F618E6CA3AF622C7
:10064400D083D082F8E4937012740193700DA3A345
:1006540093F8740193F5828883E473740293686059
:06066400EFA3A3A380DF59
:10087300EFB40A07740D12087E740A309811A89910
:10088300B8130CC2983098FDA899C298B811F630E5
:0708930099FDC299F59922BD
:00000001FF
