:100C890054696D653A0054656D703A0053746F701C
:100C990077617463683A004368616E6765205469D7
:030CA9006D650076
:100B7A00014D010126000227000002290000014B55
:100B8A0000012B00042D00000000044F00000000AB
:100B9A00012C0004210000000001250007385F5FD6
:070BAA005F5F5F5F5FC18028
:10092100E4F553FFF554F555120BE37FCC120C3D62
:100931007F44120C3D7F647E00120D83120BE37F16
:10094100CC120C3D7FBE120C3D120C128F53120CB7
:1009510012EF54F8FEBEF8106307FFE553F404F5F7
:100961005370010FC2008002D200EFFE7C00E4252B
:1009710053FFEC3EFE7D1912030BEF7802CEC31339
:09098100CE13D8F9F5558E54FF90
:01098A00224A
:0409EF00AB07AA06A2
:1009F300E4F558753920753A30753B30753C3075E0
:100A03003D30300005753820800375382D7C007D1E
:100A13000AAF03AE0212031DED2430FFC374049525
:100A2300582438F8A60705587C007D0AAF03AE02A8
:100A330012031DAA06AB07EF4E70D2853C3D853BE2
:060A43003C753B2EF53E60
:010A4900228A
:100CC800E4FF20B1010F20B0027F0220B2027F03AF
:0A0CD80020B3027F04854C358F4CD9
:010CE20022EF
:100BB200E54C6009052AE52A7026052922E53560FB
:100BC2001FE54C701BD3E52A9419E52994004008CF
:100BD200E5352404F52B800385352BE4F529F52A28
:010BE20022F0
:06049D007B007A00793FAC
:0E04A3008F5B8E5A8D598C588B5C8A5D895EFA
:1004B100E4F55FF560F5617B107A0EF9F8AF5B1238
:1004C1000B368F60E47B107A0EF9F8AF5BAE5AAD54
:1004D10059AC58120B36AC00AD01AE02AF03E47B50
:1004E1003CFAF9F8120B368F61E47B3CFAF9F8AF6C
:1004F1005BAE5AAD59AC58120B36AF03EF75F00A2B
:1005010084E5F02430FE7462255FF8A606055FEFEE
:1005110075F00A842430FF7462255FF8A607055F31
:10052100E56175F00A84E5F02430FF7462255FF817
:10053100A607055FE56175F00A842430FF74622522
:100541005FF8A607055FE56075F00A84E5F02430E1
:10055100FF7462255FF8A607055FE56075F00A8400
:100561002430FF7462255FF8A607055FAF5F155F52
:10057100EFD39400401C7462255FF8E6AB5CAA5D82
:10058100A95E1202F97401255EF55EE4355DF55D43
:0E05910080DAAB5CAA5DA95EE41202F97F017C
:01059F002239
:0E05A0008F5B8E5A8D598C588B5C8A5D895EFC
:1005AE00E4F55FF5607B707A17F9F8AF5BAE5A121F
:1005BE000B368F607E007C177D7012030BC3E55BDC
:1005CE009FFFE55A9EFEE5599400FDE5589400FC08
:1005DE00E47B64FAF9F8120B36E56075F070A4FD51
:1005EE00C3E55B9DFEEF75F064A4FDC3EE9DFE7545
:1005FE00F00A84E5F02430FD7461255FF8A6050548
:10060E005FEE75F00A842430FE7461255FF8A6064D
:10061E00055FEF75F00A84E5F02430FE7461255F06
:10062E00F8A606055FEF75F00A842430FF74612585
:10063E005FF8A607055FE56075F00A84E5F02430E3
:10064E00FF7461255FF8A607055FE56075F00A8403
:10065E002430FF7461255FF8A607055FAF5F155F55
:10066E00EFD39400401C7461255FF8E6AB5CAA5D85
:10067E00A95E1202F97401255EF55EE4355DF55D45
:0E068E0080DAAB5CAA5DA95EE41202F97F017E
:01069C00223B
:1008A4007BFF7A0C7989E4FDFF120C65AB3FE4FD14
:1008B4007F06FE120CACAB40E4FD7F07FE120CACCD
:1008C4007B3AE4FD7F08FE120CACAB41E4FD7F09EA
:1008D400FE120CACAB42E4FD7F0AFE120CAC7B3A78
:1008E400E4FD7F0BFE120CACAB43E4FD7F0CFE1267
:1008F4000CACAB44E4FD7F0DFE120CAC7BFF7A0C18
:10090400798F7D01E4FF120C65AF37AE361209EF23
:0D0914007B007A0079387D017F05020C65BB
:10098B007BFF7A0C7995E4FDFF120C65AB3F7D0183
:10099B007F067E00120CACAB407D017F077E001200
:1009AB000CAC7B3A7D017F087E00120CACAB417D19
:1009BB00017F097E00120CACAB427D017F0A7E00E9
:1009CB00120CAC7B3A7D017F0B7E00120CACAB435F
:1009DB007D017F0C7E00120CACAB447D017F0D7E44
:0409EB0000020CAC4E
:10081B007BFF7A0C79A0E4FDFF120C65E5257006D1
:10082B007B487D018016E525B401077B4D7D01E4F6
:10083B00800AE525B4020A7B537D01E4FFFE120C0E
:10084B00ACAB3F7D017F067E00120CACAB407D0153
:10085B007F077E00120CAC7B3A7D017F087E001275
:10086B000CACAB417D017F097E00120CACAB427D21
:10087B00017F0A7E00120CAC7B3A7D017F0B7E0060
:10088B00120CACAB437D017F0C7E00120CACAB4465
:09089B007D017F0D7E00020CAC12
:10000E007F01120CFE120D42120A4A120AEF120D55
:10001E0015E52B7003020214640160030200F2E581
:10002E004EB4010DE52CB40105E4F52C8003752CBE
:10003E0001E54E64026003020211E52514603A14D4
:10004E00606624026003020211E5522410F534E5C5
:10005E0051340EF533E43550F532E4354FF5317F3A
:10006E007F7E517D017C00AB34AA33A932F8C312D6
:10007E0003534003020211805CE552243CF534E444
:10008E003551F533E43550F532E4354FF5317F7F98
:10009E007E517D017C00AB34AA33A932F8C3120322
:1000AE00534003020211802DE5522401F534E4354C
:1000BE0051F533E43550F532E4354FF5317F7F7E1F
:1000CE00517D017C00AB34AA33A932F8C31203531D
:1000DE0040030202118534528533518532508531E9
:1000EE004F020211E52B64026003020191E54E649A
:1000FE00026003020211E5251460311460552402DA
:10010E006003020211E55224F0F534E55134F1F5A5
:10011E0033E55034FFF532E54F34FFF531AF34AEF1
:10012E0033AD32FC335003020211804CE55224C42D
:10013E00F534E55134FFF533E55034FFF532E54F34
:10014E0034FFF531AF34AE33AD32FC33500302021F
:10015E00118025E55224FFF534E55134FFF533E5E2
:10016E005034FFF532E54F34FFF531AF34AE33ADD9
:10017E0032FC3350030202118F528E518D508C4F30
:10018E00020211E52B64037028E54EC39402500D54
:10019E00054E754D01E54E940140688063E54E6451
:1001AE000270600525E525C394034057E4F52580CC
:1001BE0052E52BB40510E54E64017047F524F52386
:1001CE00F522F521803DE52BB40616E54E6402704E
:1001DE003285523085512F85502E854F2DB2A180FC
:1001EE0022E52BB4071DE54E64026011754D01E446
:1001FE00F552F551F550F54F754E028006754D01CD
:10020E00E4F54EE4F52BE54DB401087F01120D56D1
:10021E00E4F54DE54E14601B14602F2402600302BA
:10022E00001FAF30AE2FAD2EAC2D12049D1208A4C0
:10023E0002001FAF24AE23AD22AC217B007A0079E1
:10024E003F1205A012098B02001FAF52AE51AD50E6
:10025E00AC4F12049D12081BE525701A7F047E0117
:10026E00120D2C7B207D017F067E00120CAC7B20B4
:10027E007D017F07801DE525B401277F047E0112D5
:10028E000D2C7B207D017F097E00120CAC7B207D26
:10029E00017F0A7E00120CAC7F047E01120D2C022F
:1002AE00001FE5256402600302001F7F047E011219
:1002BE000D2C7B207D017F0C7E00120CAC7B207DF3
:1002CE00017F0D7E00120CAC7F047E01120D2C02FC
:0202DE00001FFF
:03000B0002069D4D
:10069D00C0E0C0F0C083C082C0D075D000C000C023
:1006AD0001C002C003C004C005C006C007758A188A
:1006BD00758CFC05260528E52870020527E526C35F
:1006CD009414400B752600054B120CC8120BB2C3C7
:1006DD00E528940AE5279400404375270075280006
:1006ED00E52CB40138E47F617EEAFDFCAB24AA233E
:1006FD00A922A821C31203695017E5242401F5246A
:10070D00E43523F523E43522F522E43521F5218066
:10071D000C752400752300752200752100E54BC36F
:10072D0094324043754B007F7F7E517D017C00AB41
:10073D0030AA2FA92EA82DD3120369400E753000B3
:10074D00752F00752E00752D00801CE5302401F5E8
:10075D0030E4352FF52FE4352EF52EE4352DF52D1E
:10076D001209218E368F37D007D006D005D004D090
:10077D0003D002D001D000D0D0D082D083D0F0D021
:02078D00E03258
:0C0D76007F057E047DF8DDFEDEFADFF66E
:010D8200224E
:040CFE00AB07AA0690
:100D0200900000C3E5829BE5839A5006120D76A3FC
:020D120080F16E
:010D140022BC
:100D2C00EF1FAC0670011E4C600B007D027CC7DC13
:050D3C00FEDDFC80EB70
:010D4100228F
:0B0D8300EF1FAC0670011E4C70F62242
:100D15005389F0438901758A18758CFCC28DD2A957
:070D2500D2AFC2B9D28C224B
:100A9D0053444155204D43550032303232203620DB
:100AAD00360003070F1F1F1F1F1F181E1F1F1F1F9D
:100ABD001F1F071F1F1F1F1F1F1F10181C1E1E1E6D
:100ACD001E1E0F070301000000001F1F1F1F1F0F19
:100ADD0007011F1F1F1F1F1C18001C1810000000EE
:020AED00000007
:100CE300E4FE7580FFC2A6D2A5D2A7AF80C2A70E2D
:0A0CF300EED394325004EF20E7EF37
:010CFD0022D4
:100D5600AD07120CE3C2A6C2A58D80D2A7C2A722F8
:100D6600AD07120CE3D2A6C2A58D80D2A7C2A722D8
:100D42007F38120D567F0C120D567F06120D567FFC
:040D520001020D5637
:100C6500AE07ED7003EE8003EE24404480FF120DC5
:100C7500561202E0FF600C120D66740129F9E43A80
:040C8500FA80EE22E1
:100A4A00E4F558F559F55AF55B7C40F558F559E443
:100A5A00FAFBEB2CFF120D5674AF255BF582740A74
:100A6A00355AF583E493FF120D66055BE55B700268
:100A7A00055A0BBB00010AEB64084A70D574082CAE
:100A8A00FC0559E55970020558C39408E5589400C5
:020A9A0040BD5D
:010A9C002237
:100CAC008F828E83AC03ED7003EF8005AF82EF244F
:0C0CBC00404480FF120D56AF04020D668C
:100AEF00E4FAEAFF7E00FBE4FD120CAC0ABA04F252
:100AFF007A04EA24FCFFE434FFFEAB027D01120C02
:100B0F00AC0ABA08ED7BFF7A0A799DE4FD7F0812E3
:100B1F000C657A0A79A67D017F08120C657F2C126D
:070B2F000CFE7F01020D56D0
:100BE300E4F556D2B77F08FE120D83C2B77F507E5D
:100BF30000120D83D2B77F0E7E00120D83A2B7E4DD
:0E0C030033F5567F147E00120D83E55624FF54
:010C110022C0
:100C1200E4F556F557755608C2B7E557C313F557AD
:100C2200D2B730B7034357807F047E00120D83157D
:0A0C320056E556D3940050E0AF578A
:010C3C002295
:020C3D008F56D0
:100C3F00E4F557755708C2B7E5561392B77F057E8F
:100C4F0000120D83D2B7E556C313F5561557E55766
:050C5F00D3940050E1F8
:010C6400226D
:0300000002078F65
:0C078F00787FE4F6D8FD75816C0207D677
:1002E000BB010689828A83E0225002E722BBFE021C
:0902F000E32289828A83E493224F
:1002F900BB010689828A83F0225002F722BBFE01E4
:02030900F322DD
:10030B00EF8DF0A4A8F0CF8CF0A428CE8DF0A42E06
:02031B00FE22C0
:10031D00C2D5EC30E709B2D5E4C39DFDE49CFCEEFB
:10032D0030E715B2D5E4C39FFFE49EFE12037AC3F6
:10033D00E49DFDE49CFC800312037A30D507C3E4F1
:06034D009FFFE49EFE226A
:100B3600C2D5E830E70FB2D5E4C39BFBE49AFAE4EA
:100B460099F9E498F8EC30E717B2D5120B6C120459
:100B56000BE4C39BFBE49AFAE499F9E498F8800362
:100B660012040B30D50DE4C39FFFE49EFEE49DFD09
:040B7600E49CFC22DD
:10035300EB9FF5F0EA9E42F0E99D42F0EC6480C821
:0603630064809845F022C1
:10036900EB9FF5F0EA9E42F0E99D42F0E89C45F0EA
:010379002261
:10079B0002000EE493A3F8E493A34003F68001F266
:1007AB0008DFF48029E493A3F85407240CC8C3335F
:1007BB00C4540F4420C8834004F456800146F6DF2E
:1007CB00E4800B0102040810204080900B7AE47E39
:1007DB00019360BCA3FF543F30E509541FFEE49323
:1007EB00A360010ECF54C025E060A840B8E493A3EA
:1007FB00FAE493A3F8E493A3C8C582C8CAC583CA15
:10080B00F0A3C8C582C8CAC583CADFE9DEE780BECC
:010BB1000043
:10037A00BC000BBE0029EF8DF084FFADF022E4CC67
:10038A00F875F008EF2FFFEE33FEEC33FCEE9DEC30
:10039A00984005FCEE9DFE0FD5F0E9E4CEFD22ED76
:1003AA00F8F5F0EE8420D21CFEADF075F008EF2FC0
:1003BA00FFED33FD4007985006D5F0F222C398FDB1
:0503CA000FD5F0EA224E
:1003CF0075F008758200EF2FFFEE33FECD33CDCCE5
:1003DF0033CCC58233C5829BED9AEC99E582984068
:1003EF000CF582EE9BFEED9AFDEC99FC0FD5F0D645
:1003FF00E4CEFBE4CDFAE4CCF9A88222B800C1B96F
:10040F000059BA002DEC8BF084CFCECDFCE5F0CBAC
:10041F00F97818EF2FFFEE33FEED33FDEC33FCEBE5
:10042F0033FB10D703994004EB99FB0FD8E5E4F9A0
:10043F00FA227818EF2FFFEE33FEED33FDEC33FC8D
:10044F00C933C910D7059BE99A4007EC9BFCE99A81
:10045F00F90FD8E0E4C9FAE4CCFB2275F010EF2FC6
:10046F00FFEE33FEED33FDCC33CCC833C810D707C6
:10047F009BEC9AE899400AED9BFDEC9AFCE899F801
:0E048F000FD5F0DAE4CDFBE4CCFAE4C8F92294
:00000001FF
